:03000000020ED11C
:0C0ED100787FE4F6D8FD758117020F1839
:0411A4000000FFFF49
:100CD0004400B0000000004400AC4170000044003B
:100CE0006800000000A04028000000000000000094
:100CF00000000000000000000000000000000000F4
:100D000000000000000000000000000000000000E3
:100D100000000000000000000000000000000000D3
:100D200000000000000101016040006C00000000B4
:100D300000000000000000000000000000000000B3
:100D4000000000000000000000000800000000009B
:100D50000000000000000000000000000000000093
:100D6000000000000000000000010202A0280007AF
:100D70000507060707000000000000000000000053
:100D80000000000000000000000000000000000063
:0D0D90000000000000000001160301170420
:100E4400246CF58274003EF583ECFF3395E0FEE5F7
:100E5400822FF582E5833EF58322EDFF3395E0FE94
:100E6400C3EF9408EE6480948022EDFF3395E0FE96
:100E74007803EF22246CF58274003EF58322E0FFB0
:100E84003395E0FEEF22EF75F008A4242822EC2528
:100E9400E02400F8EBF2EC25E02401F8EDF20C225A
:100EA400C3EF9E75F008A4241FF8C3EF9D28F82211
:100EB400CCCDE4CD7BFF7E007F02020ADF9000B040
:0D0EC4000209EFED75F008A4242729F8229B
:100F5D00120FC0120BFD120EC1E4FBFA7980783F1F
:100F6D001208079000B0120A077F0112118620B4F3
:100F7D000375170620B60375170420B703751705FB
:100F8D0020B503751707120BFD9000681209FB12AF
:100F9D000EC11208039000AC1209FB1208F850B3F1
:100FAD00AF17120B05120EC1900068120A07120F2F
:0D0FBD00C080A0120FCA120FCA120FCA2264
:10118600CDEFCD1FED6016E4FEEEFD3395E0FCC31A
:0D119600ED9478EC6480948050E60E80ECBF
:0111A3002229
:100BFD00E4F508AF08EF120E604003020CB4120EBC
:100C0D008AF8E224FF9280EF75F008A42429F8E217
:100C1D0024FF9281EF75F008A4242AF8E224FF92B4
:100C2D0082EF75F008A4242BF8E224FF9283EF7570
:100C3D00F008A4242CF8E224FF9284EF75F008A4A8
:100C4D00242DF8E224FF9285EF75F008A4242EF8E8
:100C5D00E224FF9286EF75F008A4242FF8E224FF1A
:100C6D009287E4FD12109EEF24FF92A77D01120CD6
:100C7D00B592A67D02120CB592A57D03120CBE9203
:100C8D00A47D04120CBE92A37D05120CC792A27D09
:100C9D0006120CC792A17D07AF0812109EEF24FF1C
:070CAD0092A00508020C00F3
:100CB40022AF0812109EEF24FF22AF0812109EEFFD
:0C0CC40024FF22AF0812109EEF24FF2234
:10109E00E4FEFCECFB3395E0FAC3EB9408EA6480C3
:1010AE009480500B120E8A2CF8E22EFE0C80E4EF88
:1010BE006D7016CFEECFEF3395E0FED3EF9400EECA
:0B10CE006480948040037F00227F01BB
:0110D90022F4
:100FCA007F08E4FEEFA2E713C36480F8EE6480981A
:100FDA005059CDEECDC3EF9E14C36480F8ED648002
:100FEA00985044EE120E8B2DF8E2FCC3EF9DF97572
:100FFA00F008A424202EF8E2FBEE120E8B2DF8EB5B
:10100A00F2120EA4E2FBE975F008A424202EF8EBF4
:10101A00F2C3EF9EF9120EC7E2FB120EA4EBF21214
:0B102A000EC7ECF20D80AE0E020FCEE0
:011035002298
:100D9E007800E2FECDEECD08E2FECCEECCEF24FCE8
:100DAE00604B14606724FE6025046003020E41123E
:100DBE000E6EC333CE33CED8F92464F5827400128E
:100DCE000E4A120E824E60037F00227F0122120E07
:100DDE006EC333CE33CED8F92474F5827400120E5E
:100DEE004A120E824E60037F00227F0122120E6E87
:100DFE00C333CE33CED8F9246BF5827400120E4A6B
:100E0E00120E824E60037F00227F0122CFEDCFEFC4
:100E1E00120E70C333CE33CED8F9246DF582740022
:100E2E003EF583CFECCFEF120E4F120E824E6005C1
:050E3E007F00227F018E
:010E4300228C
:10111600E51524FC601A14602324FE600704702978
:10112600ED148002ED041209BB900001E51480164F
:10113600ED1209BBE51414900001800AED1209BBFB
:0A114600E514049000011209CD2207
:10115000E4FD120E5E502EE4FCEC120E5F502312E2
:101160000E6EC333CE33CED8F9120E44120E826403
:10117000094E700BED1209BB900001EC0209CD0C79
:0511800080D70D80CDB9
:011185002247
:1010DA00E4FD120E5E5034E4FCEC120E5F5029124D
:1010EA000E6EC333CE33CED8F9120E44120E824E90
:1010FA00600BED120E8B2CF87401F28008ED120EC3
:0B110A008B2CF8E4F20C80D10D80C7A4
:0111150022B7
:10103600E4FCFBEB120E5F502AE4FD120E5E50201C
:10104600EB120E6FC333CE33CED8F9120E78ED12F3
:101056000E4E120E8264014E7003120E920D80DB4C
:101066000B80D0E4FBEB120E5F502AE4FD120E5EFD
:101076005020EB120E6FC333CE33CED8F9120E7852
:10108600ED120E4E120E8264024E7003120E920D77
:0710960080DB0B80D08C16FB
:01109D002230
:020B05008F0857
:100B0700C8740AC8CC74007A1179A4120EB4C874D8
:100B17000CC8CC74007A1179A6120EB47800E2F5ED
:100B27000E08E2F50FAF08120D9EEF7003020BFCE3
:100B37007B007A00790A850F14850815AD0E12110E
:100B470016AF0AEF120E70C333CE33CED8F9120E9A
:100B570078AF0BEF120E4F7401F0AF0EEF120E705D
:100B6700C333CE33CED8F9120E78AF0FEF120E4F34
:100B77007409F0E4F509C3E5166480F8E5096480B3
:100B870098504A7B007A00790C121150AF0CEF1283
:100B97000E70C333CE33CED8F9120E78AF0DEF12E5
:100BA7000E4F7402F0E50925E02400F8E2120E6FFB
:100BB700C333CE33CED8F9120E78E50925E02401E8
:100BC700F8E2120E4E7409F00509020B7DE50925BE
:100BD700E024FEF8E2120E6FC333CE33CED8F912FB
:100BE7000E78E50925E024FFF8E2120E4EE4F01234
:050BF70010361210DAB7
:010BFC0022D6
:100800000209A6E86480F8E933E83360110460F077
:10081000ED33EC337009E8FCE9FDEAFEEBFF22045E
:1008200060DED3EB9FEA9EE99DE8C2E78CF0C2F759
:1008300095F0400CE8CCF8E9CDF9EACEFAEBCFFB25
:1008400012097185D0F05804700320D5B3E8047004
:10085000075002B2D50209B092D5EC0460F7E4CC9F
:10086000C0E0C398F8603B94186008400DD0E0FBEE
:10087000020988E4FBFAC9FC8028E830E406E4C9F0
:10088000FBE4CAFCE830E305E4C9CACBFCE8540742
:100890006010F8C3E913F9EA13FAEB13FBEC13FC4D
:1008A000D8F130F52FC3E49CFCEF9BFFEE9AFEEDF0
:1008B00099FDD0E0FBEF4E4D4C701222DB03020994
:1008C000ADEC2CFCEF33FFEE33FEED33FDED30E706
:1008D000EB020988EF2BFFEE3AFEED39FDD0E0FB8D
:1008E00050130BBB00030209B0ED13FDEE13FEEF36
:0808F00013FFEC13FC02098860
:1008F80074F8CC6480CCC86480C8F58204604FC3A7
:10090800EB9FF5F0EA9E42F0E99D42F0E89C45F045
:10091800603C501DE5825FFFE582D313CB5BCBF4CF
:100928002B5582FB50280ABA002409B900200880F8
:100938001DE5825BFBE582D313CF5FCFF4C3132F92
:100948005582FF50090EBE00050DBD00010CC3EB1A
:100958009FF5F0EA9E42F0E99D42F0E89C45F06080
:0909680007CC4820E701B3EC22A2
:10097100E9D2E7C933E833F892D5EDD2E7CD33ECCC
:0709810033FC5002B2D52245
:10098800EC30E7100FBF000C0EBE00080DBD0004D0
:100998000BEB6014A2D5EB13FCED92E7FD2274FF7C
:1009A800FCFDFEFF22E480F8A2D574FF13FC7D80D5
:0309B800E480EFE9
:100EDD00020F5DE493A3F8E493A34003F68001F2BF
:100EED0008DFF48029E493A3F85407240CC8C33316
:100EFD00C4540F4420C8834004F456800146F6DFE5
:100F0D00E4800B0102040810204080900CD0E47E98
:100F1D00019360BCA3FF543F30E509541FFEE493D9
:100F2D00A360010ECF54C025E060A840B8E493A3A0
:100F3D00FAE493A3F8E493A3C8C582C8CAC583CACB
:100F4D00F0A3C8C582C8CAC583CADFE9DEE780BE83
:010D9D000055
:1009BB00BB010689828A83F0225002F722BBFE011B
:0209CB00F32215
:1009CD00F8BB010DE58229F582E5833AF583E8F060
:1009DD00225006E92582C8F622BBFE05E92582C80C
:0209ED00F222F4
:0C09EF00E0FCA3E0FDA3E0FEA3E0FF227B
:0C09FB00E0F8A3E0F9A3E0FAA3E0FB227F
:0C0A0700ECF0A3EDF0A3EEF0A3EFF02262
:100A1300E709F608DFFA8046E709F208DFFA803EC5
:100A230088828C83E709F0A3DFFA8032E309F608B2
:100A3300DFFA8076E309F208DFFA806E88828C831E
:100A4300E309F0A3DFFA806289828A83E0A3F608D0
:100A5300DFFA805689828A83E0A3F208DFFA804AAC
:100A630080D280FA80C680D4806580F28031801085
:100A730080A680EA809A80A880DA80E280CA8031EA
:100A830089828A8363A20188828C8363A201E493AF
:100A9300A363A201F0A363A201DFF3DEF1800B895C
:100AA300828A83E493A3F608DFF9ECFAA9F0EDFB5D
:100AB3002289828A8363A20188828C8363A201E0F4
:100AC300A363A201F0A363A201DFF4DEF280DB895A
:100AD300828A83E493A3F208DFF980CE88F0EF6083
:100AE300010E4E60C588F0ED2402B4040050BBF53E
:100AF30082EB2402B4040050B12323458223900ADD
:020B030063731A
:00000001FF
